:1000000012C0189518951895189518951895189563
:100010001895F1C118951895189518951895189573
:100020001895189518958FE58DBFC8E3E0E24E2E20
:1000300084E08EBFD4E0F4E05F2EA89584B7082E4C
:10004000877F84BF88E1992781BD91BDEEEFF3E002
:10005000A0E6B0E088278D933197E9F766248FEF0B
:1000600081BBB898B998BA98BB9ABC9A8FEF84BBF9
:1000700070E072BB70E075BB41D453D444D410ED32
:1000800059D417E057D410E955D44BD48FEB809353
:10009000600081E08093730080E090E0AFE6B0E024
:1000A0008D939C93C398A898A998AA98AB9870919F
:1000B0007A007F7770937A0086E490E0ABE8B0E056
:1000C0008D939C93E2E0F0E0A1E9B0E091E07BE762
:1000D000EDD3E4E0F0E0A2E9B0E091E07BE7E6D325
:1000E00084E083BF79B7716079BFA0E6B0E08C91FE
:1000F00082BF789456D2BED289D235D2AFE6B0E074
:100100000D911C91003050E0150709F011C090913D
:10011000850093D3A7E8B0E08D9388278C939091C6
:100120007F008BD3A9E8B0E08D9388278C93C49A85
:10013000AFE6B0E00D911C91013050E0150709F0D9
:1001400010C090917B0079D3A7E8B0E08D93882709
:100150008C939091850071D3A9E8B0E08D938827A6
:100160008C93AFE6B0E00D911C91023050E0150782
:1001700009F011C0C498A4E9B0E08C91A7E8B0E000
:100180008D9388278C93A3E9B0E08C91A9E8B0E027
:100190008D9388278C93AFE6B0E00D911C910330CE
:1001A00050E0150709F010C090917D0046D3A7E8F4
:1001B000B0E08D9388278C93909183003ED3A9E87B
:1001C000B0E08D9388278C93A6E3B0E00C9100FB00
:1001D00081E00EF480E08F93AFE6B0E00D911C91CA
:1001E000003050E0150781E009F080E09F918923FD
:1001F000882309F42EC081E090E0A9E6B0E08D9359
:100200009C93A7E8B0E08D919C91ABE6B0E08D9314
:100210009C93ABE6B0E00D911C910B3350E01507B9
:1002200008F00DC0ABE6B0E00D911C9141E050E04C
:10023000040F151FABE6B0E00D931C9306C080E0E1
:1002400090E0ABE6B0E08D939C9388EC90E00CD30B
:1002500077D1A6E3B0E00C9100FB81E00EF480E0E2
:100260008F93AFE6B0E00D911C91023050E015077E
:1002700081E009F080E09F918923882309F42EC052
:10028000A9E8B0E08D919C91ABE6B0E08D939C9392
:10029000ABE6B0E00D911C91073150E0150708F076
:1002A0000DC0ABE6B0E00D911C9141E050E0040FB1
:1002B000151FABE6B0E00D931C9306C080E090E004
:1002C000ABE6B0E08D939C9388EC90E0CDD2E2E079
:1002D000F0E0ABE6B0E092E07BE7E8D2A6E3B0E086
:1002E0000C9101FB81E00EF480E08F93AFE6B0E06B
:1002F0000D911C91003050E0150781E009F080E07D
:100300009F918923882309F42EC082E090E0A9E61A
:10031000B0E08D939C93A9E8B0E08D919C91ABE601
:10032000B0E08D939C93ABE6B0E00D911C9107314A
:1003300050E0150708F00DC0ABE6B0E00D911C9140
:1003400041E050E0040F151FABE6B0E00D931C93A5
:1003500006C080E090E0ABE6B0E08D939C9388EC23
:1003600090E082D2EDD0A6E3B0E00C9101FB81E0F9
:100370000EF480E08F93AFE6B0E00D911C91023057
:1003800050E0150781E009F080E09F9189238823E0
:1003900009F42EC0A7E8B0E08D919C91ABE6B0E0E7
:1003A0008D939C93ABE6B0E00D911C910B3350E024
:1003B000150708F00DC0ABE6B0E00D911C9141E0CF
:1003C00050E0040F151FABE6B0E00D931C9306C080
:1003D00080E090E0ABE6B0E08D939C9388EC90E0F9
:1003E00043D2E4E0F0E0ABE6B0E092E07BE75ED23F
:1003F00081CEF894FFCF0F921F922F923F924F928F
:100400005F927F92AF92BF920F931F932F933F9370
:100410004F935F936F937F938F939F93AF93BF930C
:10042000CF93DF93EF93FF938FB78F937F930091D9
:100430007300013009F010C0AB98ABE8B0E0ED916B
:10044000FC9105D2A1E6B0E08C9182BBA89AABE802
:10045000B0E0ED91FC91FBD100917300023009F006
:1004600010C0A898ABE8B0E0ED91FC91F0D1A3E604
:10047000B0E08C9182BBA99AABE8B0E0ED91FC9121
:10048000E6D100917300033009F010C0A998ABE8E1
:10049000B0E0ED91FC91DBD1A5E6B0E08C9182BBA0
:1004A000AA9AABE8B0E0ED91FC91D1D10091730034
:1004B000043009F010C0AA98ABE8B0E0ED91FC91CF
:1004C000C6D1A7E6B0E08C9182BBAB9AABE8B0E0B6
:1004D000ED91FC91BCD1A3E7B0E08C918F5F8C9340
:1004E00000917300043010F009F001C003C081E0F6
:1004F00080937300A0E6B0E08C9182BF7F917091F1
:100500007A007F7770937A008F918FBFFF91EF9180
:10051000DF91CF91BF91AF919F918F917F916F911B
:100520005F914F913F912F911F910F91BF90AF908D
:100530007F905F904F903F902F901F900F90189555
:1005400080916B0074D1ABE6B0E08D9388278C93DB
:10055000DAD110EDEFD110916900ECD110916B0060
:10056000E9D1DFD1089590917F0067D1482F0091A4
:100570009300041781E009F080E08F93909185004B
:100580005CD1482F00919400041781E009F080E0CD
:100590009F918923882309F402C0C39A01C0C3989C
:1005A0000895B1D110EDC6D110E0C4D1BAD1ABD10C
:1005B00011EDC0D1DED1ABE7B0E01D9388278C935D
:1005C000D8D1A5E8B0E01D9388278C93D2D1AFE7AE
:1005D000B0E01D9388278C93CCD1A3E8B0E01D93A5
:1005E00088278C93C4D1ADE7B0E01D9388278C9306
:1005F00098D1E2E0F0E0A3E9B0E091E068D1E4E076
:10060000F0E0A4E9B0E091E062D10895BA98AAE7D9
:10061000B0E09C9196FF04C0B29B0EC09F7B9C9360
:10062000B2990AC084E19F9399271ED19F91B299F4
:1006300003C090649C9301D00895AFE6B0E00D91A3
:100640001C91033050E0150709F007C080E090E0EE
:10065000AFE6B0E08D939C930CC0AFE6B0E00D9197
:100660001C9141E050E0040F151FAFE6B0E00D9380
:100670001C930895A9E8B0E00D911C9144E650E068
:1006800002D1A1E8B0E00D931C93A1E8B0E00D9178
:100690001C91A7E8B0E04D915C91040F151FA1E8F3
:1006A000B0E00D931C93A1E8B0E00D911C9148EED1
:1006B00053E098D0A7E6B0E04D935C9308EE13E0CA
:1006C000A7E6B0E04D915C91DED0A6E7B0E00D93D7
:1006D0001C93A1E8B0E00D911C91A6E7B0E04D910C
:1006E0005C91041B150BA8E7B0E00D931C93A8E7E1
:1006F000B0E00D911C9144E650E074D0A5E6B0E066
:100700004D935C9304E610E0A5E6B0E04D915C915A
:10071000BAD0A6E7B0E00D931C93A8E7B0E00D9126
:100720001C91A6E7B0E04D915C91041B150BA8E766
:10073000B0E00D931C93A8E7B0E00D911C914AE046
:1007400050E050D0A3E6B0E04D935C930AE010E097
:10075000A3E6B0E04D915C9196D0A6E7B0E00D9392
:100760001C93A8E7B0E00D911C91A6E7B0E04D9175
:100770005C91041B150BA8E7B0E00D931C93A8E750
:10078000B0E08D919C91A1E6B0E08D939C93709127
:100790007A00706870937A00089508D074D000FCD5
:1007A00010D0089503D01ED001F8F9CF0024E894AA
:1007B00057FF02C009D0689400F80BD010F801244C
:1007C000089502D009D00895509540954F5F5F4F2E
:1007D0000895E89417FF0895009510950F5F1F4F37
:1007E00068940895352F242FE894452B11F46894CC
:1007F0000895512F402F0027112780E1440F551FE6
:10080000001F111F021B130B416018F4020F131F6E
:100810004E7F8A9599F70895982F82958F70805D05
:100820008D939F70905D9D9388278C9308954AE0E7
:10083000082F54D00295802B0895892F8F709051E6
:1008400010F0865FFCCF08953197F1F7089500000E
:100850000000000000003197D1F70895689462F815
:100860000895E89462F80895EF93FF93EE27E82B3C
:10087000E92B31F0E0EDF7E03197F1F70197D1F78F
:10088000FF91EF9108950F92B801469F8001479F15
:10089000100D569F100D0F900895E199FECFEEBBFD
:1008A000FFBB3196089591E001C092E07B3751F48F
:1008B0007FB7F894F2DF8D918DBBE29AE19A9A9519
:1008C000C9F77FBF7727089591E001C092E0E5DF87
:1008D000E09A8DB38D939A95D1F70895FF93881B75
:1008E000F9E0001FFA9511F4FF910895881F841B09
:1008F00018F4840F8894F5CF0894F3CFA498A598A2
:10090000AC98AD980895A59AA49803D0A59801D065
:10091000A49AEF93FF93E6E0F0E096DFFF91EF916A
:100920000895A59AA49AF5DFA5989D9BFECFF1DFC7
:10093000A498EFCF0894111F01C0110F69F0A59A78
:1009400018F40000A49802C0A49A00C0E2DFA598A1
:100950009D9BFECFDEDFF1CFA59AA498DADFA598A4
:100960009D9BFECFE8949C99689462F8D2CF08943E
:1009700001C08894331F11E0A59AA498CADFA598F6
:100980009D9BFECFC6DF88949C990894111FA0F709
:10099000A59A379510F4A49801C0A49ABADFA59837
:0809A0009D9BFECFB6DF089518
:00000001FF
